{
  "contractName": "Airlines",
  "abi": [
    {
      "constant": true,
      "inputs": [],
      "name": "chairPerson",
      "outputs": [
        {
          "name": "",
          "type": "address"
        }
      ],
      "payable": false,
      "stateMutability": "view",
      "type": "function",
      "signature": "0xd4d4b5ac"
    },
    {
      "inputs": [],
      "payable": false,
      "stateMutability": "nonpayable",
      "type": "constructor",
      "signature": "constructor"
    },
    {
      "constant": false,
      "inputs": [
        {
          "name": "airline",
          "type": "address"
        }
      ],
      "name": "Register",
      "outputs": [],
      "payable": true,
      "stateMutability": "payable",
      "type": "function",
      "signature": "0xeeda149c"
    },
    {
      "constant": false,
      "inputs": [
        {
          "name": "Airline_address",
          "type": "address"
        }
      ],
      "name": "UnRegister",
      "outputs": [],
      "payable": false,
      "stateMutability": "nonpayable",
      "type": "function",
      "signature": "0x630f28bb"
    },
    {
      "constant": false,
      "inputs": [
        {
          "name": "source",
          "type": "bytes32"
        },
        {
          "name": "destination",
          "type": "bytes32"
        },
        {
          "name": "seats",
          "type": "uint256"
        }
      ],
      "name": "Request",
      "outputs": [],
      "payable": false,
      "stateMutability": "nonpayable",
      "type": "function",
      "signature": "0xf367ff96"
    },
    {
      "constant": false,
      "inputs": [
        {
          "name": "Airline_address",
          "type": "address"
        },
        {
          "name": "_source",
          "type": "bytes32"
        },
        {
          "name": "_destination",
          "type": "bytes32"
        },
        {
          "name": "_seats",
          "type": "uint256"
        }
      ],
      "name": "Response",
      "outputs": [],
      "payable": false,
      "stateMutability": "nonpayable",
      "type": "function",
      "signature": "0x9265f340"
    },
    {
      "constant": false,
      "inputs": [
        {
          "name": "toAirline",
          "type": "address"
        }
      ],
      "name": "settlePayment",
      "outputs": [],
      "payable": true,
      "stateMutability": "payable",
      "type": "function",
      "signature": "0x2109dc88"
    },
    {
      "constant": true,
      "inputs": [
        {
          "name": "Airline_address",
          "type": "address"
        }
      ],
      "name": "getBalance",
      "outputs": [
        {
          "name": "",
          "type": "uint256"
        }
      ],
      "payable": false,
      "stateMutability": "view",
      "type": "function",
      "signature": "0xf8b2cb4f"
    }
  ],
  "bytecode": "0x608060405234801561001057600080fd5b50336000806101000a81548173ffffffffffffffffffffffffffffffffffffffff021916908373ffffffffffffffffffffffffffffffffffffffff160217905550610af4806100606000396000f3fe608060405260043610610083576000357c0100000000000000000000000000000000000000000000000000000000900463ffffffff1680632109dc8814610088578063630f28bb146100cc5780639265f3401461011d578063d4d4b5ac1461018c578063eeda149c146101e3578063f367ff9614610227578063f8b2cb4f14610276575b600080fd5b6100ca6004803603602081101561009e57600080fd5b81019080803573ffffffffffffffffffffffffffffffffffffffff1690602001909291905050506102db565b005b3480156100d857600080fd5b5061011b600480360360208110156100ef57600080fd5b81019080803573ffffffffffffffffffffffffffffffffffffffff169060200190929190505050610378565b005b34801561012957600080fd5b5061018a6004803603608081101561014057600080fd5b81019080803573ffffffffffffffffffffffffffffffffffffffff16906020019092919080359060200190929190803590602001909291908035906020019092919050505061049a565b005b34801561019857600080fd5b506101a1610639565b604051808273ffffffffffffffffffffffffffffffffffffffff1673ffffffffffffffffffffffffffffffffffffffff16815260200191505060405180910390f35b610225600480360360208110156101f957600080fd5b81019080803573ffffffffffffffffffffffffffffffffffffffff16906020019092919050505061065e565b005b34801561023357600080fd5b506102746004803603606081101561024a57600080fd5b81019080803590602001909291908035906020019092919080359060200190929190505050610886565b005b34801561028257600080fd5b506102c56004803603602081101561029957600080fd5b81019080803573ffffffffffffffffffffffffffffffffffffffff169060200190929190505050610a7f565b6040518082815260200191505060405180910390f35b34600160003373ffffffffffffffffffffffffffffffffffffffff1673ffffffffffffffffffffffffffffffffffffffff1681526020019081526020016000206000828254039250508190555034600160008373ffffffffffffffffffffffffffffffffffffffff1673ffffffffffffffffffffffffffffffffffffffff1681526020019081526020016000206000828254019250508190555050565b6000809054906101000a900473ffffffffffffffffffffffffffffffffffffffff1673ffffffffffffffffffffffffffffffffffffffff163373ffffffffffffffffffffffffffffffffffffffff1614151561043c576040517f08c379a00000000000000000000000000000000000000000000000000000000081526004018080602001828103825260198152602001807f48617320746f20626520746865206368616972706572736f6e0000000000000081525060200191505060405180910390fd5b6000600360008373ffffffffffffffffffffffffffffffffffffffff1673ffffffffffffffffffffffffffffffffffffffff16815260200190815260200160002060030160006101000a81548160ff02191690831515021790555050565b600360003373ffffffffffffffffffffffffffffffffffffffff1673ffffffffffffffffffffffffffffffffffffffff16815260200190815260200160002060030160009054906101000a900460ff16151561055e576040517f08c379a000000000000000000000000000000000000000000000000000000000815260040180806020018281038252600e8152602001807f4e6f74207265676973746572656400000000000000000000000000000000000081525060200191505060405180910390fd5b82600360008673ffffffffffffffffffffffffffffffffffffffff1673ffffffffffffffffffffffffffffffffffffffff1681526020019081526020016000206000018190555081600360008673ffffffffffffffffffffffffffffffffffffffff1673ffffffffffffffffffffffffffffffffffffffff1681526020019081526020016000206001018190555080600360008673ffffffffffffffffffffffffffffffffffffffff1673ffffffffffffffffffffffffffffffffffffffff1681526020019081526020016000206002018190555050505050565b6000809054906101000a900473ffffffffffffffffffffffffffffffffffffffff1681565b60001515600360008373ffffffffffffffffffffffffffffffffffffffff1673ffffffffffffffffffffffffffffffffffffffff16815260200190815260200160002060030160009054906101000a900460ff16151514156107bd573373ffffffffffffffffffffffffffffffffffffffff168173ffffffffffffffffffffffffffffffffffffffff1614151561075d576040517f08c379a00000000000000000000000000000000000000000000000000000000081526004018080602001828103825260118152602001807f53656c6620526567697374726174696f6e00000000000000000000000000000081525060200191505060405180910390fd5b6001600360008373ffffffffffffffffffffffffffffffffffffffff1673ffffffffffffffffffffffffffffffffffffffff16815260200190815260200160002060030160006101000a81548160ff021916908315150217905550610883565b600360008273ffffffffffffffffffffffffffffffffffffffff1673ffffffffffffffffffffffffffffffffffffffff16815260200190815260200160002060030160009054906101000a900460ff16151515610882576040517f08c379a00000000000000000000000000000000000000000000000000000000081526004018080602001828103825260128152602001807f416c72656164792072656769737465726564000000000000000000000000000081525060200191505060405180910390fd5b5b50565b600360003373ffffffffffffffffffffffffffffffffffffffff1673ffffffffffffffffffffffffffffffffffffffff16815260200190815260200160002060030160009054906101000a900460ff16151561094a576040517f08c379a000000000000000000000000000000000000000000000000000000000815260040180806020018281038252600e8152602001807f4e6f74207265676973746572656400000000000000000000000000000000000081525060200191505060405180910390fd5b82600360003373ffffffffffffffffffffffffffffffffffffffff1673ffffffffffffffffffffffffffffffffffffffff1681526020019081526020016000206000018190555081600360003373ffffffffffffffffffffffffffffffffffffffff1673ffffffffffffffffffffffffffffffffffffffff1681526020019081526020016000206001018190555080600360003373ffffffffffffffffffffffffffffffffffffffff1673ffffffffffffffffffffffffffffffffffffffff168152602001908152602001600020600201819055506001600360003373ffffffffffffffffffffffffffffffffffffffff1673ffffffffffffffffffffffffffffffffffffffff16815260200190815260200160002060030160006101000a81548160ff021916908315150217905550505050565b6000600160008373ffffffffffffffffffffffffffffffffffffffff1673ffffffffffffffffffffffffffffffffffffffff16815260200190815260200160002054905091905056fea165627a7a72305820c26d1924beed58798988118b948d3b6e6cab9be42a8158f2c73b83461576964b0029",
  "source": "pragma solidity 0.5.0;\n\ncontract Airlines{\n   address public chairPerson;\n   mapping(address=>uint) balance;\n   uint deposit;\n   mapping(address  => User) registeredUsers;\n   struct User {\n       bytes32 source;\n       bytes32 destination;\n       uint SeatNo;\n       bool exists;\n   }\n\n   constructor () public {\n        chairPerson = msg.sender;\n   }\n  \n    function Register(address airline) public payable{\n        if(registeredUsers[airline].exists == false) { \n        require(airline==msg.sender,\"Self Registration\");\n        registeredUsers[airline].exists = true;\n        // balance[airline] = msg.value;\n        // deposit=balance[airline]-50000000000000000000;\n        // balance[airline]=balance[msg.sender]-50000000000000000000;\n        }\n        else{\n             require(!registeredUsers[airline].exists, \"Already registered\");\n         }\n   }\n   function UnRegister(address Airline_address) public onlyChairperson {\n        // balance[Airline_address]=balance[msg.sender]+50e18;\n        registeredUsers[Airline_address].exists = false;\n       \n   }\n   function Request(bytes32 source,bytes32 destination, uint seats) public  isRegisteredAirline {\n       registeredUsers[msg.sender].source=source;\n       registeredUsers[msg.sender].destination=destination;\n       registeredUsers[msg.sender].SeatNo= seats;\n       registeredUsers[msg.sender].exists= true;\n       \n   }\n   // function Request(address Airline_address,bytes32 source,bytes32 destination, uint seats) public {\n   //     registeredUsers[Airline_address].source=source;\n   //     registeredUsers[Airline_address].destination=destination;\n   //     registeredUsers[Airline_address].SeatNo= seats;\n   //     registeredUsers[Airline_address].exists= true;\n       \n   // }\n   function Response(address Airline_address, bytes32  _source,bytes32  _destination,uint  _seats)public isRegisteredAirline{\n       registeredUsers[Airline_address].source=_source;\n       registeredUsers[Airline_address].destination=_destination;\n       registeredUsers[Airline_address].SeatNo=_seats;\n   }\n   function settlePayment(address toAirline) public payable{\n       balance[msg.sender] -= msg.value;\n       balance[toAirline] += msg.value;\n   }\n \n   function getBalance(address Airline_address) public view returns(uint256){\n      return balance[Airline_address];\n   }\n   modifier isRegisteredAirline{\n      require(registeredUsers[msg.sender].exists, \"Not registered\");\n      _;\n  }\n\n   modifier onlyChairperson{\n       require(msg.sender==chairPerson, \"Has to be the chairperson\");\n       _;\n   }\n}",
  "sourcePath": "C:/Users/ramji/Desktop/ASK/ask/ask-app/ask-contract/contracts/Airlines.sol",
  "compiler": {
    "name": "solc",
    "version": "0.5.0+commit.1d4f565a.Emscripten.clang"
  },
  "schemaVersion": "3.0.6",
  "updatedAt": "2019-05-09T21:26:56.341Z",
  "devdoc": {
    "methods": {}
  },
  "userdoc": {
    "methods": {}
  }
}